:020000040800F2
:1000000000000220B10E0008D91F0008DB1F000805
:10001000DD1F0008DF1F0008E11F000800000000CE
:10002000000000000000000000000000E1AF000838
:10003000E31F00080000000081B00008E51F000871
:10004000010F0008010F0008010F0008010F000850
:10005000010F0008010F0008010F0008010F000840
:10006000010F0008010F0008010F0008010F000830
:10007000ED1F0008010F0008FD1F0008010F000818
:100080000D2000081D200008010F0008010F0008C6
:10009000010F0008010F0008010F00082D200008C3
:1000A000010F00083D200008010F0008010F0008A3
:1000B000010F0008010F00084D200008010F000883
:1000C000010F0008010F0008010F0008010F0008D0
:1000D000010F00085D200008792000089520000825
:1000E000010F0008010F0008010F0008010F0008B0
:1000F000B1200008010F0008010F0008010F0008DF
:10010000010F0008010F0008010F0008010F00088F
:10011000010F0008010F0008010F0008010F00087F
:10012000C1200008D1200008E1200008010F0008CC
:10013000F1200008010F0008010F0008010F00085E
:10014000010F0008010F0008010F0008012100083D
:10015000010F0008112100082121000831210008A9
:10016000010F0008010F0008010F0008010F00082F
:10017000010F0008010F0008010F00080000000037
:08018000010F0008010F000847
:1001900010B5054C237833B9044B13B10448AFF3C1
:1001A00000800123237010BDC8040020000000005F
:1001B000DCFA000808B5034B1BB103490348AFF351
:1001C000008008BD00000000CC040020DCFA00081C
:1001D00081F0004102E000BF83F0004330B54FEAF8
:1001E00041044FEA430594EA050F08BF90EA020F65
:1001F0001FBF54EA000C55EA020C7FEA645C7FEAF8
:10020000655C00F0E2804FEA5454D4EB5555B8BF1A
:100210006D420CDD2C4480EA020281EA030382EA8B
:10022000000083EA010180EA020281EA0303362D1D
:1002300088BF30BD11F0004F4FEA01314FF4801CF0
:100240004CEA113102D0404261EB410113F0004F02
:100250004FEA03334CEA133302D0524263EB4303B9
:1002600094EA050F00F0A780A4F10104D5F1200E57
:100270000DDB02FA0EFC22FA05F2801841F10001B2
:1002800003FA0EF2801843FA05F359410EE0A5F186
:1002900020050EF1200E012A03FA0EFC28BF4CF0B7
:1002A000020C43FA05F3C01851EBE37101F000456D
:1002B00007D54FF0000EDCF1000C7EEB00006EEB7A
:1002C0000101B1F5801F1BD3B1F5001F0CD3490804
:1002D0005FEA30004FEA3C0C04F101044FEA44525B
:1002E00012F5800F80F09A80BCF1004F08BF5FEAE2
:1002F000500C50F1000041EB045141EA050130BDC2
:100300005FEA4C0C404141EB010111F4801FA4F164
:100310000104E9D191F0000F04BF01460020B1FAB9
:1003200081F308BF2033A3F10B03B3F120020CDAF1
:100330000C3208DD02F1140CC2F10C0201FA0CF0CF
:1003400021FA02F10CE002F11402D8BFC2F1200C34
:1003500001FA02F120FA0CFCDCBF41EA0C019040EA
:10036000E41AA2BF01EB0451294330BD6FEA040433
:100370001F3C1CDA0C340EDC04F11404C4F120021E
:1003800020FA04F001FA02F340EA030021FA04F330
:1003900045EA030130BDC4F10C04C4F1200220FA87
:1003A00002F001FA04F340EA0300294630BD21FAC5
:1003B00004F0294630BD94F0000F83F4801306BF8B
:1003C00081F480110134013D4EE77FEA645C18BF7F
:1003D0007FEA655C29D094EA050F08BF90EA020F16
:1003E00005D054EA000C04BF1946104630BD91EA0E
:1003F000030F1EBF0021002030BD5FEA545C05D111
:100400004000494128BF41F0004130BD14F580044F
:100410003CBF01F5801130BD01F0004545F0FE41C3
:1004200041F470014FF0000030BD7FEA645C1ABFF8
:10043000194610467FEA655C1CBF0B46024650EA2F
:10044000013406BF52EA033591EA030F41F400215B
:1004500030BD00BF90F0000F04BF0021704730B5E1
:100460004FF4806404F132044FF000054FF00001B6
:1004700050E700BF90F0000F04BF0021704730B577
:100480004FF4806404F1320410F0004548BF40424C
:100490004FF000013EE700BF42004FEAE2014FEAA1
:1004A00031014FEA02701FBF12F07F4393F07F4F7C
:1004B00081F06051704732F07F4208BF704793F07F
:1004C0007F4F04BF41F40021704730B54FF4607492
:1004D00001F0004521F000411CE700BF50EA010295
:1004E00008BF704730B54FF000050AE050EA01023E
:1004F00008BF704730B511F0004502D5404261EBAE
:1005000041014FF4806404F132045FEA915C3FF4EE
:10051000D8AE4FF003025FEADC0C18BF03325FEA8B
:10052000DC0C18BF033202EBDC02C2F1200300FA3C
:1005300003FC20FA02F001FA03FE40EA0E0021FA61
:1005400002F11444BDE600BF53B94AB9002908BFFF
:1005500000281CBF4FF0FF314FF0FF3000F072B9A0
:10056000ADF1080C6DE904CE00F006F8DDF804E00A
:10057000DDE9022304B070472DE9F047089E0446E8
:100580008846002B4BD18A42154667D9B2FA82F2CF
:100590004AB1C2F1200701FA02F320FA07F79540A9
:1005A00047EA030894404FEA154E230CB8FBFEF7C8
:1005B0001FFA85FC0EFB178843EA084307FB0CF182
:1005C000994209D9EB1807F1FF3080F01B8199425D
:1005D00040F21881023F2B445B1AA4B2B3FBFEF039
:1005E0000EFB103344EA034400FB0CFCA44509D97C
:1005F0002C1900F1FF3380F00781A44540F20481FB
:1006000002382C4440EA0740A4EB0C0400271EB13A
:10061000D4400023C6E900433946BDE8F0878B4249
:1006200009D9002E00F0EB800027C6E9000138460A
:100630003946BDE8F087B3FA83F7002F47D18B42E4
:1006400002D3824200F2FA80841A61EB0303012094
:100650009846002EE0D0C6E90048DDE702B9FFDE8B
:10066000B2FA82F2002A40F08F80491B4FEA154E01
:100670001FFA85F80127B1FBFEFC230C0EFB1C11B1
:1006800043EA014308FB0CF1994207D9EB180CF13E
:10069000FF3002D2994200F2CD808446591AA3B2AB
:1006A000B1FBFEF00EFB101443EA044408FB00F813
:1006B000A04507D92C1900F1FF3302D2A04500F262
:1006C000B6801846A4EB080440EA0C409FE7C7F147
:1006D000200CBB4022FA0CFE4EEA030E01FA07F48E
:1006E00020FA0CF521FA0CF34FEA1E482543B3FB20
:1006F000F8F92C0C08FB19331FFA8EFA44EA03436D
:1007000009FB0AF49C4202FA07F200FA07F10BD93E
:100710001EEB030309F1FF3080F087809C4240F21A
:100720008480A9F1020973441B1BADB2B3FBF8F03E
:1007300008FB103345EA034400FB0AFAA24508D936
:100740001EEB040400F1FF336BD2A24569D90238D5
:10075000744440EA0940A0FB0289A4EB0A044C451A
:10076000C2464B4654D351D0002E69D0B1EB0A0596
:1007700064EB030404FA0CFCFD40FC404CEA050564
:10078000C6E90054002747E7C2F1200320FA03F727
:10079000954001FA02F021FA03F34FEA154E38436F
:1007A000010CB3FBFEF71FFA85F80EFB173341EA85
:1007B000034107FB08F38B4204FA02F407D96918D6
:1007C00007F1FF3C2FD28B422DD9023F2944CB1A8F
:1007D00081B2B3FBFEF00EFB103341EA034100FB94
:1007E00008F38B4207D9691800F1FF3C17D28B42FE
:1007F00015D902382944C91A40EA07473BE737466A
:10080000304609E70746E7E61846FBE64145ABD226
:10081000B8EB020A69EB0E0201381346A4E7604602
:10082000E9E7184695E76746D1E781467CE7023855
:100830002C4447E7ACF1020C2B442FE7384608E77D
:100840003746E9E6704700BF034613F8012B002A3C
:10085000FBD1181A013870470000000000000000AA
:1008600001F0FF01102A2BDB10F0070F08D010F861
:10087000013B013A8B422DD010F0070F42B3F6D165
:10088000F0B441EA012141EA014122F007047FF07E
:1008900000070023F0E80256083C85EA010586EAD5
:1008A000010685FA47F5A3FA87F586FA47F6A5FA11
:1008B00087F68EB9EED1F0BC01F0FF0102F007021D
:1008C00032B110F8013B013A83EA010313B1F8D1C8
:1008D0000020704701387047002D06BF35460338A9
:1008E000073815F0010F07D1013015F4807F02BFE2
:1008F000013015F4C03F0130F0BC0138704700BF33
:1009000070B54FF0FF0C4CF4E06C1CEA11541DBFA5
:100910001CEA135594EA0C0F95EA0C0F00F0DEF870
:100920002C4481EA030621EA4C5123EA4C5350EA55
:10093000013518BF52EA033541F4801143F48013A6
:1009400038D0A0FB02CE4FF00005E1FB02E506F037
:100950000042E0FB03E54FF00006E1FB03569CF08C
:10096000000F18BF4EF0010EA4F1FF04B6F5007F92
:1009700064F5407404D25FEA4E0E6D4146EB060604
:1009800042EAC62141EA55514FEAC52040EA5E508D
:100990004FEACE2EB4F1FD0C88BFBCF5E06F1ED837
:1009A000BEF1004F08BF5FEA500E50F1000041EB6E
:1009B000045170BD06F0004646EA010140EA02001B
:1009C00081EA0301B4EB5C04C2BFD4EB0C0541EA3D
:1009D000045170BD41F480114FF0000E013C00F352
:1009E000AB8014F1360FDEBF002001F0004170BD76
:1009F000C4F10004203C35DA0C341BDC04F114048F
:100A0000C4F1200500FA05F320FA04F001FA05F21A
:100A100040EA020001F0004221F0004110EBD370E7
:100A200021FA04F642EB06015EEA430E08BF20EA13
:100A3000D37070BDC4F10C04C4F1200500FA04F3B6
:100A400020FA05F001FA04F240EA020001F0004148
:100A500010EBD37041F100015EEA430E08BF20EABB
:100A6000D37070BDC4F1200500FA05F24EEA020E03
:100A700020FA04F301FA05F243EA020321FA04F032
:100A800001F0004121FA04F220EA020000EBD370E9
:100A90005EEA430E08BF20EAD37070BD94F0000FE9
:100AA0000FD101F00046400041EB010111F4801F1D
:100AB00008BF013CF7D041EA060195F0000F18BFCE
:100AC000704703F00046520043EB030313F4801F0A
:100AD00008BF013DF7D043EA0603704794EA0C0FC4
:100AE0000CEA135518BF95EA0C0F0CD050EA4106DA
:100AF00018BF52EA4306D1D181EA030101F0004157
:100B00004FF0000070BD50EA410606BF104619467E
:100B100052EA430619D094EA0C0F02D150EA01368A
:100B200013D195EA0C0F05D152EA03361CBF1046CB
:100B300019460AD181EA030101F0004141F0FE416A
:100B400041F470014FF0000070BD41F0FE4141F4EE
:100B5000780170BD70B54FF0FF0C4CF4E06C1CEAEE
:100B600011541DBF1CEA135594EA0C0F95EA0C0FA3
:100B700000F0A7F8A4EB050481EA030E52EA03355E
:100B80004FEA013100F088804FEA03334FF080557F
:100B900045EA131343EA12634FEA022245EA1115AC
:100BA00045EA10654FEA00260EF000419D4208BF5D
:100BB000964244F1FD0404F5407402D25B084FEA0A
:100BC0003202B61A65EB03055B084FEA32024FF4B6
:100BD00080104FF4002CB6EB020E75EB030E22BF13
:100BE000B61A754640EA0C005B084FEA3202B6EBD3
:100BF000020E75EB030E22BFB61A754640EA5C0082
:100C00005B084FEA3202B6EB020E75EB030E22BF11
:100C1000B61A754640EA9C005B084FEA3202B6EB12
:100C2000020E75EB030E22BFB61A754640EADC00D1
:100C300055EA060E18D04FEA051545EA16754FEA33
:100C400006164FEAC30343EA52734FEAC2025FEA51
:100C50001C1CC0D111F4801F0BD141EA00014FF0E0
:100C600000004FF0004CB6E711F4801F04BF0143B1
:100C70000020B4F1FD0C88BFBCF5E06F3FF6AFAECD
:100C8000B5EB030C04BFB6EB020C5FEA500C50F15D
:100C9000000041EB045170BD0EF0004E4EEA1131E0
:100CA00014EB5C04C2BFD4EB0C0541EA045170BDE7
:100CB00041F480114FF0000E013C90E645EA060E2B
:100CC0008DE60CEA135594EA0C0F08BF95EA0C0F59
:100CD0003FF43BAF94EA0C0F0AD150EA01347FF4A1
:100CE00034AF95EA0C0F7FF425AF104619462CE778
:100CF00095EA0C0F06D152EA03353FF4FDAE1046DB
:100D0000194622E750EA410618BF52EA43067FF42B
:100D1000C5AE50EA41047FF40DAF52EA43057FF4BB
:100D2000EBAE12E74FF0FF3C06E000BF4FF0010CC6
:100D300002E000BF4FF0010C4DF804CD4FEA410C2A
:100D40007FEA6C5C4FEA430C18BF7FEA6C5C1BD0F7
:100D500001B050EA410C0CBF52EA430C91EA030F78
:100D600002BF90EA020F0020704710F1000F91EAD5
:100D7000030F58BF994208BF90422CBFD8176FEAA3
:100D8000E37040F0010070474FEA410C7FEA6C5C71
:100D900002D150EA013C07D14FEA430C7FEA6C5C78
:100DA000D6D152EA033CD3D05DF8040B704700BFA4
:100DB0008446104662468C461946634600E000BFF2
:100DC00001B5FFF7B7FF002848BF10F1000F01BDC4
:100DD0004DF808EDFFF7F4FF0CBF012000205DF88F
:100DE00008FB00BF4DF808EDFFF7EAFF34BF012014
:100DF00000205DF808FB00BF4DF808EDFFF7E0FFAD
:100E000094BF012000205DF808FB00BF4DF808EDFD
:100E1000FFF7CEFF94BF012000205DF808FB00BF64
:100E20004DF808EDFFF7C4FF34BF012000205DF846
:100E300008FB00BF4FEA410C7FEA6C5C02D150EA2C
:100E4000013C0AD14FEA430C7FEA6C5C02D152EAC2
:100E5000033C02D14FF0000070474FF00100704793
:100E60004FEA410212F5001215D211D56FF47873D2
:100E7000B3EB625212D94FEAC12343F0004343EA75
:100E8000505311F0004F23FA02F018BF4042704750
:100E90004FF00000704750EA013005D111F00040DA
:100EA00008BF6FF0004070474FF00000704700BF70
:100EB000DFF834D0002103E00C4B5B584350043181
:100EC0000B480C4B42189A42F6D30B4A02E000231F
:100ED00042F8043B094B9A42F9D305F02DFB0CF084
:100EE0003DFA00F07BFE704700000220381A01082E
:100EF00000000020C8040020C8040020BC1F0120FE
:100F0000FEE770B50D461646002404E0AFF30080FE
:100F1000287001340135B442F8DB304670BD70B53D
:100F20001646002405E04D1C087801F041FC013410
:100F30002946B442F7DB304670BD000008B50346D1
:100F40000B4A126842B10A4A106803446A46934247
:100F500006D8074A136008BD054A06491160F2E742
:100F60000CF0F6F90C2303604FF0FF30F3E700BFFD
:100F7000E4040020C01F01204FF0FF3070474FF401
:100F800000534B60002070470120704700207047DD
:100F900000B585B05248534B03604FF48033436033
:100FA000002282600123036183610262C2624E49B2
:100FB0008162C2600922C2610363436105F0BAFB2A
:100FC00000285BD101230093019307230293694614
:100FD000434805F0BFFC002855D1082300930223A5
:100FE000019369463E4805F0B5FC002850D109231D
:100FF0000093032301936946394805F0ABFC0028B0
:101000004BD10A230093042301936946344805F029
:10101000A1FC002846D10B230093052301936946C8
:101020002F4805F097FC002841D10C23009306239C
:10103000019369462A4805F08DFC00283CD10D2318
:101040000093072301936946254805F083FC002897
:1010500037D10E230093082301936946204805F0F9
:1010600079FC98BB0F2300930923019369461C4820
:1010700005F070FC78BB05B05DF804FB56211B48F9
:1010800000F034FD9EE76021184800F02FFDA4E732
:101090006921164800F02AFDA9E77221134800F0E3
:1010A00025FDAEE77B21114800F020FDB3E7842148
:1010B0000E4800F01BFDB8E78D210C4800F016FD2E
:1010C000BDE79621094800F011FDC2E79F210748BE
:1010D00000F00CFDC6E7A821044800F007FDCAE7B0
:1010E000E0420020002001400100000FD40101086F
:1010F00000B585B03B483C4B03604FF48033436000
:10110000002282600123036183610262C262374967
:101110008162C2600622C2610363436105F00AFB7B
:1011200000283BD10423009301230193072302935A
:1011300069462C4805F00EFC002834D105230093A5
:10114000022301936946274805F004FC80BB06236F
:101150000093032301936946224805F0FBFB60BB23
:10116000072300930423019369461E4805F0F2FB10
:1011700040BB08230093052301936946194805F0F5
:10118000E9FB20BB00230093062301936946154821
:1011900005F0E0FB00BB05B05DF804FBC12114487D
:1011A00000F0A4FCBEE7CB21114800F09FFCC5E78E
:1011B000D4210F4800F09AFCC9E7DD210C4800F06B
:1011C00095FCCDE7E6210A4800F090FCD1E7EF213D
:1011D000074800F08BFCD5E7F821054800F086FCB5
:1011E000D9E700BF28430020002201400100000F82
:1011F000D401010870B588B004460368464A93429A
:1012000004D0464A934246D008B070BD00250195EF
:10121000434B5A6C42F480725A645B6C03F48073E3
:101220000193019B3F23039303260496059503A98D
:101230003C4805F06FFF022303930496059503A92C
:10124000394805F067FF03960496059503A93748CA
:1012500005F060FF3648374B036045608560C56028
:101260004FF4806303614FF4006343614FF4005314
:1012700083614FF48073C3610562456205F05EFDD2
:1012800018B92B4BA3639C63BEE74FF499712A48AE
:1012900000F02CFCF5E700250295214B5A6C42F436
:1012A00080625A645B6C03F480630293029B4FF488
:1012B000F863039303260496059503A91F4805F0D8
:1012C00029FF012303930496059503A9164805F009
:1012D00021FF1B481B4B03604FF080634360856018
:1012E000C5604FF4806303614FF4006343614FF4C2
:1012F000005383614FF48073C3610562456205F05A
:101300001DFD18B90E4BA3639C637DE74FF4B271CA
:10131000094800F0EBFBF5E7002001400022014006
:101320000038024000080240000002400004024071
:101330007043002070640240D40101080014024090
:10134000804200201064024000B583B00D480E4B6F
:10135000036005F03FFC50B90022009201926946FB
:10136000084805F049FC38B903B05DF804FB472193
:10137000064800F0BBFBEFE75021044800F0B6FB45
:10138000F2E700BFD04300200074004024020108AF
:1013900002680F4B9A4200D0704700B587B0002119
:1013A000009103F5E2331A6C42F000521A641B6C90
:1013B00003F000530093009B102301930323029337
:1013C000039101A9034805F0A5FE07B05DF804FBF1
:1013D000007400400000024010B582B00024009468
:1013E000324B1A6B42F400121A631A6B02F40012A9
:1013F0000092009A01941A6B42F480021A631B6BEC
:1014000003F480030193019B224605210C2005F083
:101410007BFB0C2005F0ACFB224605210E2005F0DD
:1014200073FB0E2005F0A4FB22460521102005F0D9
:101430006BFB102005F09CFB22460521112005F0D6
:1014400063FB112005F094FB22460521382005F0AE
:101450005BFB382005F08CFB22460521392005F086
:1014600053FB392005F084FB224605213A2005F084
:101470004BFB3A2005F07CFB224605213C2005F081
:1014800043FB3C2005F074FB22460521452005F076
:101490003BFB452005F06CFB22460521462005F06C
:1014A00033FB462005F064FB02B010BD003802405B
:1014B000024A136801331360704700BF28190120E6
:1014C00008B501F087F9012009F01DFBFBE708B51D
:1014D00003F07AFE012009F016FBF9E708B54FF09A
:1014E000FF31054B186809F077FB044802F042FA17
:1014F000012009F008FBF2E7F84300200C1101205D
:1015000008B54FF0FF31054B186809F065FB04483A
:1015100002F030FA012009F0F6FAF2E71044002058
:1015200088F8002008B54FF0FF31054B186809F026
:1015300053FB044802F01EFA012009F0E4FAF2E736
:10154000E443002084F4002008B503F0B7FA01203A
:1015500009F0D9FAF9E708B504F062FF012009F0B3
:10156000D2FAF9E708B502F06BFA012009F0CBFADC
:10157000F9E7000008B5064804F054FB054804F0FC
:1015800051FB02F029FE012009F0BDFAF3E700BF8C
:10159000FC1C0120F41C0120F0B5B3B0002532A8DA
:1015A00040F8045D142109F001FB4A4B186032A891
:1015B00040F8085D142109F0F9FA474B186032A889
:1015C00040F80C5D142109F0F1FA444B186032A880
:1015D000434B40F8103D2A46012109F09DFA414B4A
:1015E0001860012109F0ACFA3F4C29AE27460FCF15
:1015F0000FC63B683360294629A809F06AFA3B4BBD
:10160000186024AE04F114070FCF0FC63B68336097
:10161000294624A809F05DFA354B18601FAE04F185
:1016200028070FCF0FC63B68336029461FA809F073
:1016300050FA304B18601AAE04F13C070FCF0FC6BA
:101640003B68336029461AA809F043FA2A4B186010
:1016500015AE04F150070FCF0FC63B683360294623
:1016600015A809F036FA254B186010AE04F164078E
:101670000FCF0FC63B683360294610A809F029FA3E
:101680001F4B18600BAE04F178070FCF0FC63B68F5
:10169000336029460BA809F01CFA1A4B186006AEF5
:1016A00004F18C070FCF0FC63B683360294606A8AC
:1016B00009F00FFA144B186001AEA0340FCC0FC61E
:1016C00023683360294601A809F003FA0F4B18601C
:1016D00033B0F0BDF843002010440020E443002064
:1016E000B114000808440020F8FA0008EC43002078
:1016F000144400200C440020F0430020004400204B
:1017000004440020E8430020F4430020FC43002070
:101710002DE9F0438FB000240194654B1A6B42F021
:1017200020021A631A6B02F020020192019A0294BD
:101730001A6B42F080021A631A6B02F08002029266
:10174000029A03941A6B42F004021A631A6B02F0B5
:1017500004020392039A04941A6B42F001021A6382
:101760001A6B02F001020492049A05941A6B42F07B
:1017700002021A631A6B02F002020592059A06949D
:101780001A6B42F040021A631A6B02F04002069292
:10179000069A07941A6B42F008021A631A6B02F059
:1017A00008020792079A08941A6B42F010021A6313
:1017B0001B6B03F010030893089B3E4F224641F237
:1017C0003C01384605F091FD3B4D22464FF47141F6
:1017D000284605F08AFDDFF8EC9022464FF4807130
:1017E000484605F082FDDFF8E0802246C8214046E9
:1017F00005F07BFD41F23C03099301260A960B9408
:101800000C9409A9384605F085FCC02309932B4B9D
:101810000A930B9409A9284605F07CFC4FF4714308
:1018200009930A960B940C9409A9284605F072FCBA
:101830004FF4807309930A960B940C9409A94846B7
:1018400005F068FCC82309930A960B940C9409A927
:10185000404605F05FFC4FF4206309930A940B9413
:1018600009A9284605F056FC4FF440730993022657
:101870000A960B9403250C9509230D9309A9384664
:1018800005F048FC09950A960B940C950C230D93D2
:1018900009A90B4805F03EFC22460521172005F05A
:1018A00033F9172005F064F90FB0BDE8F08300BFED
:1018B00000380240000402400018024000002110DD
:1018C0000010024000000240000C024008B5084829
:1018D000084B0360032343604FF47A73836005F081
:1018E0001DFD00B908BD4421034800F0FFF8F9E7E9
:1018F0001844002000300040DC02010870B50446A6
:101900000268644B9A4204D02268634B9A4203D027
:1019100070BD04F051FEF7E7604C2368013323608B
:101920005F4E604D00223146284606F0B6FF002289
:10193000311F284606F0DCFF21685B4BA3FB012327
:10194000DB0803EB83035A00914200F08C80534B79
:101950001A68564BA3FB02135B09642101FB132396
:101960002BB9534B93F8D831002B00F086804B4BAA
:101970001A68504BA3FB02131B09FA2101FB132326
:1019800013B94D4B012119704A4BA3FB02135B099C
:101990004FF4FA7101FB132313B9484B012119705D
:1019A000444BA3FB02139B094FF47A7101FB1323F1
:1019B000002B69D0394B1B683E4AA2FB0312D209A7
:1019C0004FF4FA6101FB123212B93D49012008704F
:1019D00012B93C4A012111703B4AA2FB0312120BBF
:1019E00041F2883101FB123212B9384A01211170DB
:1019F000354AA2FB0312520B42F2107101FB123264
:101A000012B9334A01211170324AA2FB0312120BA0
:101A100043F6982101FB123212B92F4A01211170AD
:101A2000234A92F8282052B1214A918DB3FBF1F25A
:101A300001FB12321AB91E4A012182F82A101C4AEF
:101A400092F82920002A3FF463AF194AD18DB3FBE5
:101A5000F1F201FB1233002B7FF45AAF144B012239
:101A600083F82B2054E71D4B01221A7004F082F9F1
:101A700004F010F804F072F869E7194B01221A70AB
:101A8000184805F070FC72E7174B01221A7002F03B
:101A900027FB8FE7000401400000014018190120D6
:101AA000C0E7002030440020CDCCCCCC1F85EB51CA
:101AB00008E60020D34D6210231901202F190120C0
:101AC000241901201F1901205917B7D11E1901200F
:101AD0002219012073B2E7452C1901201D1901209C
:101AE000141901201844002033190120FEE70000DA
:101AF00000B599B000210191334B1A6C42F080522D
:101B00001A641B6C03F080530193019B02912F4BCD
:101B10001A6842F480421A601B6803F480430293FF
:101B2000029B09230C934FF480330D9301231193EF
:101B3000022312934FF48002139204221492A822DB
:101B400015921693072317930CA806F025F960BB8E
:101B50000F23079302230893002309934FF4A05304
:101B60000A934FF480530B93052107A806F04CFB12
:101B7000F8B902230393164B069303A806F034FC2E
:101B8000E0B906F0EDFB134BA3FB0030800904F035
:101B9000FBFF042005F00EF800220F214FF0FF306C
:101BA00004F0B2FF19B05DF804FBFE210A48FFF70C
:101BB0009DFF4FF486710848FFF798FF40F213111C
:101BC0000548FFF793FF00BF003802400070004057
:101BD00000030800D34D62102C03010808B504F07F
:101BE000D1FCFFF785FFFFF793FDFFF7F5FBFFF74C
:101BF000CFF9FFF77DFA00F0A3FB00F0BFFB00F088
:101C0000DBFB00F0F7FB00F0A1FAFFF79DFBFFF70D
:101C10005DFE00F00BF900F007FB00F077F800F034
:101C2000A1F82B4807F0E9FA2A4807F099FC4FF48D
:101C300061722949294804F0A7FD4FF4167228491A
:101C4000284804F0A1FD284805F068FB274C4FF414
:101C500080622749204608F023F82268D36843F0C1
:101C60001003D360234C4FF480622349204608F0D0
:101C700017F82268D36843F01003D3601F4C4FF469
:101C800080621F49204608F00BF82268D36843F0B1
:101C90001003D3601B4C4FF480621B49204607F0B1
:101CA000FFFF2268D36843F01003D36002F0F0FA1C
:101CB00001F0C6FF02F0D6FA04F03EF902F0D4F8C3
:101CC00004F0A2FBFFF768FC08F0FEFEFEE700BF91
:101CD00020450020E444002044ED0020E0420020A4
:101CE00088E8002028430020184400209C48002059
:101CF000141501201C490020101101207C460020F1
:101D00008CF80020DC48002088F4002008B5064844
:101D1000064B036006F012FC00B908BD42210448DE
:101D2000FFF7E4FEF9E700BF244400200008065056
:101D30007C0301080268094B9A4200D0704782B0C8
:101D400000230193064B5A6B42F040025A635B6BCF
:101D500003F040030193019B02B070470008065056
:101D60000038024000B587B02648274B03600023A7
:101D700043607F228260FF22C2600361436183610E
:101D800006F029FC50BB17238DF8043000238DF892
:101D900005308DF8063004930593012201A91948F6
:101DA00006F0F3FCF8B902238DF8003003238DF818
:101DB000013012238DF8023019238DF803300122EF
:101DC0006946104806F074FC90B9002211460D488F
:101DD00006F0AFFD88B907B05DF804FB4C210B4855
:101DE000FFF784FECFE758210848FFF77FFEDAE7C8
:101DF00062210648FFF77AFEE7E769210348FFF70B
:101E000075FEE8E73044002000280040CC030108BC
:101E10000268044B9A4200D07047034B01221A60BB
:101E2000FAE700BF002800403C0E474208B50F48C3
:101E30000F4B03604FF48273436000238360C360E1
:101E4000036143614FF4007282612022C261036228
:101E5000436283620A23C36206F02AFE00B908BD0A
:101E60004F210448FFF742FEF9E700BF504400202D
:101E7000003001401C0401080268114B9A4200D056
:101E8000704700B587B00021009103F584335A6C88
:101E900042F480525A645B6C03F480530093009BBD
:101EA000E023019302230293039103230493052368
:101EB000059301A9034805F02DF907B05DF804FB6F
:101EC000003001400000024010B582B000240094B0
:101ED000214B5A6C42F480425A645A6C02F480429C
:101EE0000092009A01941A6C42F080521A641B6CA2
:101EF00003F080530193019B032004F0F3FD22467D
:101F000021466FF00B0004F0FFFD224621466FF0E2
:101F10000A0004F0F9FD224621466FF0090004F0A2
:101F2000F3FD224621466FF0040004F0EDFD224649
:101F300021466FF0030004F0E7FD22460F216FF009
:101F4000010004F0E1FD22460F214FF0FF3004F0C4
:101F5000DBFD02B010BD00BF0038024010B588B0F4
:101F6000002201462C2004F0CFFD2C2004F000FEBE
:101F700000240194144B5A6C42F002025A645B6CC8
:101F800003F002030193019B02A903A806F00EFAD5
:101F900006F0FCF943000D48A0FB03239B0C013B1A
:101FA0000B480C4A026040F2E732C26043600461B1
:101FB000846007F0D5FA10B1012008B010BD0448C4
:101FC00007F01BF9F9E700BF0038024083DE1B432E
:101FD000A8440020000401407047FEE7FEE7FEE74A
:101FE000FEE7704708B508F05FFE08BD08B5024877
:101FF00004F0A2FF08BD00BF1C46002008B502483F
:1020000004F09AFF08BD00BFBC46002008B5024896
:1020100004F092FF08BD00BF5C45002008B50248EF
:1020200004F08AFF08BD00BF3C48002008B54020EE
:1020300005F066F9802005F063F908BD08B502488F
:1020400007F070F908BD00BF2045002008B5024820
:1020500007F068F908BD00BFE444002010B5044C47
:102060000449204603F0E0F8204607F049FF10BD80
:102070009C4800201015012010B5044C044920464E
:1020800003F0D2F8204607F03BFF10BD1C490020AA
:102090000C11012010B5044C0449204603F0C4F88B
:1020A000204607F02DFF10BD7C46002088F8002058
:1020B00008B5024807F036F908BD00BFA844002063
:1020C00008B5024804F038FF08BD00BF8042002078
:1020D00008B5024804F030FF08BD00BFBC45002031
:1020E00008B5024804F028FF08BD00BFDC47002007
:1020F00008B5024804F020FF08BD00BF704300206F
:1021000008B5024805F010FA08BD00BF805B00204A
:1021100008B5024804F010FF08BD00BF7C4700204E
:1021200008B5024804F008FF08BD00BF1C470020A6
:1021300010B5044C0449204603F076F8204607F019
:10214000DFFE10BDDC48002084F4002000B595B00F
:102150003248334B036044F29F1343600023836093
:102160000A22C2600361436107F0FAF9002837D1FF
:1021700014A94FF4805341F8103D284807F04AF85D
:10218000002832D1254807F004FA002832D1202354
:102190000E9300230F930EA9204807F074FA00282D
:1021A0002DD100220792089209920A920B920C926A
:1021B0000D9207A9194807F037FA28BB00230093AE
:1021C00001930293039304934FF4005205920693F4
:1021D0006946124807F080FAD8B915B05DF804FBDB
:1021E0004C211048FFF782FCC2E752210D48FFF74F
:1021F0007DFCC7E757210B48FFF778FCC7E75E2156
:102200000848FFF773FCCCE76A210648FFF76EFC2D
:10221000D4E776210348FFF769FCDEE7204500207C
:10222000000001406C04010800B58FB02448254B24
:10223000036041F267034360002383602322C2608E
:10224000036107F08DF910BB0EA94FF4805341F8DC
:10225000103D1B4806F0DEFFF0B9194807F099F968
:10226000F8B9202308930023099308A9144807F01C
:102270000AFAD8B90022019202920392059201A9AA
:102280000F4807F0D1F9B0B90FB05DF804FB882111
:102290000D48FFF72BFCD7E78E210B48FFF726FCF4
:1022A000DBE793210848FFF721FCDAE79A2106488B
:1022B000FFF71CFCDEE7A3210348FFF717FCE3E769
:1022C000E4440020000800406C04010800B583B01D
:1022D0000368184A934205D0174A934216D003B0B8
:1022E0005DF804FB00220092144B596C41F001018F
:1022F00059645B6C03F001030093009B05211920D6
:1023000004F002FC192004F033FCE8E700220192FB
:102310000A4B196C41F0040119641B6C03F00403AF
:102320000193019B05211E2004F0EEFB1E2004F00A
:102330001FFCD4E7000001400008004000380240C4
:1023400008B50B480B4B03604FF416434360002362
:102350008360C36003610C2242618361C36107F043
:1023600000FC00B908BD5E210348FFF7BFFBF9E799
:102370009C48002000100140BC04010808B50B482F
:102380000B4B03604FF41653436000238360C3601C
:1023900003610C2242618361C36107F0E2FB00B973
:1023A00008BD71210348FFF7A1FBF9E71C49002094
:1023B00000440040BC04010808B50B480B4B036007
:1023C0004FF41653436000238360C36003610C2203
:1023D00042618361C36107F0C4FB00B908BD842179
:1023E0000348FFF783FBF9E77C46002000480040E4
:1023F000BC04010808B50B480B4B03604FF416539F
:10240000436000238360C36003610C2242618361E7
:10241000C36107F0A6FB00B908BD97210348FFF789
:1024200065FBF9E7DC48002000140140BC0401080A
:1024300030B58BB004460368934A93420CD0934A5C
:10244000934265D0924A934200F0BF80914A9342F2
:1024500000F042810BB030BD002501958E4B5A6CC7
:1024600042F010025A645B6C03F010030193019B6D
:102470004FF4C063059302230693012307930323BC
:1024800008930723099305A9844804F043FE844870
:10249000844B03604FF0006343608560C5604FF478
:1024A0008063036145618561C5610562456204F031
:1024B00045FC18BB7A4B63639C637B487B4B036092
:1024C0004FF000634360402383600023C3604FF4F8
:1024D0008062026143618361C3610362436204F00D
:1024E0002DFC80B9704B23639C63002205212520BD
:1024F00004F00AFB252004F03BFBABE7C1216C484C
:10250000FFF7F4FAD6E7D3216948FFF7EFFAE9E7D6
:1025100000250295604B1A6C42F400321A641B6C61
:1025200003F400330293029B0C23059302230693CA
:1025300001230793032308930723099305A9574809
:1025400004F0E8FD5B485C4B03604FF000634360C0
:102550008560C5604FF48063036145618561C56135
:102560000562456204F0EAFB18BB524B63639C634F
:102570005248534B03604FF0006343604023836035
:102580000023C3604FF48062026143618361C361D1
:102590000362436204F0D2FB88B9484B23639C6317
:1025A00000220521262004F0AFFA262004F0E0FAEC
:1025B00050E74FF480713E48FFF798FAD5E74FF4A3
:1025C00089713B48FFF792FAE7E700250395324B04
:1025D0001A6C42F480221A641B6C03F48023039368
:1025E000039B4FF440630593022306930123079353
:1025F000032308930723099305A9324804F08AFDB1
:102600003148324B03604FF0006343608560C56022
:102610004FF48063036145618561C5610562456270
:1026200004F08CFB18BB284B63639C632848294B40
:1026300003604FF000634360402383600023C36066
:102640004FF48062026143618361C361036243624C
:1026500004F074FB88B91E4B23639C6300220521A0
:10266000272004F051FA272004F082FAF2E640F223
:102670003F110F48FFF73AFAD5E740F251110C48E5
:10268000FFF734FAE7E700BF0010014000440040C4
:1026900000480040001401400038024000000240A1
:1026A000DC470020406402401C470020B864024020
:1026B000BC0401085C450020886002403C480020C2
:1026C000A0600240000402401C4600202860024036
:1026D000BC46002058600240002504952D4B5A6CE2
:1026E00042F020025A645B6C03F020030493049BC5
:1026F000C023059302230693012307930323089322
:102700000823099305A9244804F004FD2348244B19
:1027100003604FF0206343608560C5604FF48063C1
:10272000036145618561C5610562456204F006FB90
:1027300018BB1A4B63639C631A481B4B03604FF032
:1027400020634360402383600023C3604FF48062B2
:10275000026143618361C3610362436204F0EEFA84
:1027600088B9104B23639C6300220521472004F0A5
:10277000CBF9472004F0FCF96CE64FF4BF710B482D
:10278000FFF7B4F9D5E74FF4C8710848FFF7AEF981
:10279000E7E700BF0038024000080240BC450020C7
:1027A000286402407C470020A0640240BC04010869
:1027B00000B583B002A941F8040D4FF6FF73012262
:1027C000034807F0FDF9019803B05DF804FB00BF72
:1027D0009C48002010B5094C0022094920460AF007
:1027E000B8F9084920460AF0CBF9074920460AF013
:1027F0006BF920460AF0CBF910BD00BF5C49002000
:1028000028000020C00200200000002000207047A7
:102810000020704738B5054602F04EFD044C2946AD
:1028200020460AF060F920460AF07AF9002038BD07
:102830005C49002010B5064C0022064920460AF0EB
:102840004AF9054920460AF04EF9002010BD00BFA4
:102850005C49002080530020804B0020094BD3F8B6
:102860001832D3F814320BB10120704710B50A4664
:102870000146044C20460AF02EF920460AF039F9A8
:1028800010BD00BF5C4900200368B3F1A04F00D029
:10289000704710B586B04FF4C053019302230293E2
:1028A00000240394032304930A23059301A90E48EB
:1028B00004F030FC0D4B5A6B42F080025A630094D6
:1028C0005A6C42F480425A645B6C03F48043009378
:1028D000009B22460521432004F016F9432004F012
:1028E00047F906B010BD00BF0000024000380240AA
:1028F00008B500F56F71D0F8EC030AF061F908BD76
:1029000008B5C1EBC10293000344D3F80422D0F808
:10291000EC030AF082F908BD08B5C1EBC1029300CF
:1029200003445A6CD0F8EC030AF0ACF908BD08B5C2
:10293000D0F8EC030AF02FFA08BD10B50446C368BE
:102940004BB10121D4F8EC030AF013FAD4F8EC03EC
:102950000AF0F0F910BD0021F4E7000010B50446BC
:10296000D0F8EC030AF008FA2268D2F8003E43F0EF
:102970000103C2F8003E236A23B1034A136943F0FE
:102980000603136110BD00BF00ED00E008B5D0F8EC
:10299000EC030AF0FAF908BD08B5D0F8EC030AF028
:1029A0000AFA08BD08B5D0F8EC030AF002FA08BD2F
:1029B00008B5D0F8EC030AF000FA08BD08B5D0F865
:1029C000EC030AF0FCF908BD03780BB10020704756
:1029D00010B503461748C0F8EC33C3F820024FF097
:1029E000A0430360042343600222C260002303610A
:1029F00043618261C36103624362C362036304F0A3
:102A00000EFD80B90B4C8021204605F0C1F9402213
:102A10000021204605F098F980220121204605F08A
:102A200093F9002010BD4FF4A5710348FFF75EF83D
:102A3000E8E700BF805B00200C05010808B5D0F86E
:102A4000200204F05CFD18B1022803D0022008BD6A
:102A50000020FCE70120FAE710B51C461346224689
:102A6000D0F8200205F054F818B1022803D0022053
:102A700010BD0020FCE70120FAE708B5D0F82002DD
:102A800005F07AF818B1022803D0022008BD002012
:102A9000FCE70120FAE708B5D0F8200205F0F6F8C7
:102AA00018B1022803D0022008BD0020FCE7012055
:102AB000FAE708B5D0F8200205F01BF918B1022892
:102AC00003D0022008BD0020FCE70120FAE7D0F87F
:102AD000203211F0800F08D101F07F01C1EBC1015C
:102AE0008A00134493F8FA01704701F07F01C1EBAB
:102AF000C1018A00134493F83A00704708B5D0F832
:102B0000200204F0F3FF18B1022803D0022008BD10
:102B10000020FCE70120FAE708B5D0F8200205F014
:102B20008CF818B1022803D0022008BD0020FCE771
:102B30000120FAE708B5D0F8200205F048F818B1EE
:102B4000022803D0022008BD0020FCE70120FAE79C
:102B500008B5D0F8200205F067F808BD12230B80F5
:102B6000004870471000002004230B800048704785
:102B70002400002008B50A4628B1054905480AF096
:102B800088FB034808BD024902480AF082FBF8E7C7
:102B9000705F00206005010810B5044C0A4621460C
:102BA00003480AF076FB204610BD00BF705F00208E
:102BB0007805010808B50A4628B1054905480AF014
:102BC00068FB034808BD024902480AF062FBF8E7C7
:102BD000705F00208C05010808B50A4628B1054938
:102BE00005480AF056FB034808BD024902480AF0AE
:102BF00050FBF8E7705F00209C05010808B50A4605
:102C000028B1054905480AF044FB034808BD0249BC
:102C100002480AF03EFBF8E7705F0020A8050108B3
:102C200030B4451C00780B78984208D14C1C013A0E
:102C30002846214612F0FF02F3D1002000E00120D7
:102C400030BC7047F8B50446504B984200F0828083
:102C50004F4B984200F087804E4B984200F08C809A
:102C6000A37BE17B01EB03214B4B1B78C9084B4D48
:102C70004FF4866202FB035211874948408803EBF8
:102C80008307FE00304411FA80F15187617AA67AF9
:102C9000108F013806EB01264FF4067101FB03018A
:102CA00001F5E27125F811604FF4867101FB030311
:102CB000123355F82310013145F82310657C207C30
:102CC000538F591E00EB0520364D2C2202FB01527A
:102CD0005080E57CA07C00EB05209080657D207D08
:102CE00000EB0520D080E57DA07D00EB0520108164
:102CF000627C207C00EB02202B4D0A01A918A8520F
:102D0000E07CA27C02EB00224A80607D227D02EB07
:102D100000228A80A07DE27D02EB0022CA80607CD6
:102D2000217C03F10043013B204A01EB002122F802
:102D30001310E57CA17C02F5806001EB052120F8F1
:102D40001310607D217D02F5006201EB002122F865
:102D50001310F8BD4FF40051154804F0CCFA0E4B97
:102D600000221A707CE74FF48041114804F0C3FA46
:102D7000094B01221A7073E74FF400410C4804F02C
:102D8000BAFA054B02221A706AE700BF0C11012043
:102D900088F8002084F4002006E6002070D9002086
:102DA00008E600207061002070B900208CFC002033
:102DB0000018024038B5427B837B03EB02239DB2AF
:102DC000C37B047C04EB0324A4B2354B98420AD0A5
:102DD000344B984210D0344B984216D044F64B7383
:102DE0009C421BD038BD4FF40051304804F083FAA8
:102DF0002F4B00221A70F1E74FF480412B4804F06A
:102E00007AFA2B4B01221A70E8E74FF40041274869
:102E100004F071FA264B02221A70DFE7244B1A786D
:102E200024494FF4866303FB021393F82934B5EB6E
:102E3000C30FD7D120490B700020204908802049BA
:102E400001240C801B4C4FF4866101FB02410133CD
:102E500081F82934A1F82C0491F82834012B13D0DF
:102E6000022BBFD113494FF4866303FB021393F87F
:102E70002934282BB6D90B464FF4866101FB023268
:102E8000022382F82B34ADE7B5F5A07FAAD14FF429
:102E9000866303FB0242012382F82B34A2E700BFC2
:102EA0000C11012088F8002084F400200018024052
:102EB00006E6002070D9002000E6002004E600208D
:102EC00002E6002030B583B00446AD4B984214D0E2
:102ED000AC4B984215D0AC4B984216D0237A013BAC
:102EE000082B19D8DFE813F0150018003B0050003C
:102EF0006500AF0118001800C501A44B00221A702C
:102F0000ECE7A24B01221A70E8E7A04B02221A70EC
:102F1000E4E76388062B01D003B030BD637A022B4F
:102F20000BD0062B0FD0072B13D0092BF4D1974BC6
:102F3000197897480AF05EFFEEE7944B19789548A8
:102F40000AF058FFE8E7914B197893480AF052FFCE
:102F5000E2E78E4B197891480AF04CFFDCE7638872
:102F6000072BD9D1637A4F2B02D0A37A4B2B05D1F3
:102F7000864B19788A480AF03DFFCDE7834B1978D4
:102F800088480AF037FFC7E76388072BC4D1637A04
:102F90004F2B02D0A37A4B2B05D17C4B197882485A
:102FA0000AF028FFB8E7794B197880480AF022FF29
:102FB000B2E76388082BAFD17D4B9B79082B5FD09C
:102FC000102BA9D1714B197801F11802784B03EB42
:102FD0004203DA88607AA37A03EB00239A4240F036
:102FE000FB806A4B1978724B0B4493F84220E37ACA
:102FF0009A4240F01D81654B197801F118026C4B23
:1030000003EB4203DB88607AA27A02EB0022934250
:1030100082D1674A0A4492F84200E27A90427FF4F1
:103020007BAF012202FA01F5614C94F8292022EAD3
:10303000050284F8292001F1140204EB42021289EE
:1030400000905C480AF0D6FE94F8293094F82820C5
:10305000A17959480AF0CEFE94F82930002B7FF46C
:103060005BAFA371554A937155480AF037FF94F846
:10307000293094F82820A1794F480AF0BBFE4BE78D
:10308000424B197801F11802494B03EB4203DB88EC
:10309000607AA27A02EB0022934246D13B4B197828
:1030A000434B0B4493F84220E37A9A425CD1374B6E
:1030B000197801F118023E4B03EB4203DB88607A7A
:1030C000A27A02EB002293427FF426AF384A0A44E8
:1030D00092F84200E27A90427FF41EAF012202FA97
:1030E00001F5334C94F8282022EA050284F82820C0
:1030F00001F1140204EB42021289009031480AF0F7
:1031000079FE94F8293094F82820A1792A480AF009
:1031100071FE94F82830002B7FF4FEAE012284F873
:10312000D82129480AF0DAFEF6E628480AF062FEBD
:103130001F4D95F8293095F82820A9791E480AF0E6
:1031400059FE124B197801F1180305EB4305EA8883
:1031500002F58072607AA37A03EB00239A429DD134
:103160001B480AF047FE99E7114B0B4493F82520C2
:10317000013283F8252017480AF03CFE97E700BF8C
:103180000C11012088F8002084F4002006E60020BD
:1031900004060108B8050108D0050108EC0501087E
:1031A00038060108200601086806010850060108D3
:1031B00008E6002074070108A0060108F41C01209D
:1031C000B00701081407010850070108800601082C
:1031D000D406010800070108012303FA01F2304D6B
:1031E00095F82830134385F82830627AA37A03EBE8
:1031F00002222C480AF0FEFD95F8293095F8282087
:10320000A97929480AF0F6FD284B197801F118032D
:1032100005EB4305EA8802F58072607AA37A03EB36
:1032200000239A427FF4DDAE21480AF0E3FDD8E6A0
:103230001B4B0B4493F82520013283F825201D48B1
:103240000AF0D8FDD7E66388072B7FF465AE637A72
:103250004F2B02D0A37A4B2B05D1144B197816486B
:103260000AF0C8FD58E6114B197814480AF0C2FD5F
:1032700052E66388072B7FF44FAE637A4F2B02D060
:10328000A37A4B2B05D1094B19780D480AF0B2FDF2
:1032900042E6064B19780B480AF0ACFD3CE600BF4D
:1032A00008E6002080060108A006010806E60020C6
:1032B000D406010800070108EC070108D40701083B
:1032C0001C0801080408010808B502480AF006FEB7
:1032D00008BD00BF340801082DE9F04E2DED028B2A
:1032E00096B0002313931493159310931193129394
:1032F00000268DF83C608DF83D608DF83E608DF8BD
:1033000038608DF839608DF83A60C1480AF0E6FD02
:10331000B1E00422711CBF480AF06CFD07E0032CE9
:1033200025D90134E4B2272C3FD8002CF1D0374600
:1033300006EB8603DD002544B74B5B88EA18B74BE4
:1033400003EB0213DA882146B5480AF053FD621CEC
:10335000B44981FB0231D317C3EBA10303EB830311
:1033600059008A42DBD1B0480AF0B8FDD7E7AA4B32
:103370005B881D44A94B03EB0515EB8816AA02EBED
:10338000870207EE903AB8EEE77A52ED067A77EECA
:10339000877A42ED067A002BC3D116AB1F4417F88B
:1033A000203C013307F8203CBBE7314616AB03EB6A
:1033B000860353ED067AF5EE407AF1EE10FA0ED060
:1033C00016AB334413F8203C042B30D0C3F1040374
:1033D00007EE103AB8EEC77A87EE878A01E09FEDD4
:1033E000938AF5EE407AF1EE10FA23D016AB0B4437
:1033F00013F8203C042B42D08D484FF4866202FB28
:103400000102128A002A3DD0C3F1040307EE103AEC
:10341000B8EEC77AC7EE876A07EE902AB8EEE77A69
:10342000C6EE877A9FED837A67EE877A04E09FED98
:103430007F8AD6E7DFED7D7A7D4A4FF4866303FB12
:1034400001231D8A16AB0B4413F8203C4C1C04933B
:1034500017EE900AFDF720F8CDE9020118EE100AE8
:10346000FDF71AF8CDE900012A46214672480AF014
:10347000C1FC0136F6B2022E07D8002453E7DFED77
:103480006B7AD9E7DFED697AD6E76C480AF026FD5A
:1034900000220FE066494FF4866303FB0213996C28
:1034A000C3F8EC10C3F8F01001219987A3F840107D
:1034B0000A44D2B2022AEDD90027A5E0002E6DD031
:1034C0004FF4867303FB04541234594B53F82420F1
:1034D000294653480AF08EFC0135524A82FB0532D8
:1034E000EB17C3EBA20303EB83035A0095425AD0B8
:1034F0000136F6B2272E5AD83C4635464C494FF491
:10350000867303FB0763123351F8232016AB03EBDA
:10351000870307EE902AB8EE677A53ED037A77EEC9
:10352000877A43ED037A4FF4866303FB0713D3F8DE
:10353000EC309A4207D94FF4866303FB0713C3F8B4
:10354000EC20721C9A873A4A4FF4867303FB0453AB
:10355000123352F823104FF4866303FB0423D3F88D
:10356000F030994208D24FF4866303FB0423C3F87A
:10357000F010721CA3F840204FF4867303FB045331
:1035800012332B4A52F82330002B97D116AB1A195D
:1035900012F81C3C013302F81C3C8FE7611C2848E0
:1035A0000AF028FC8CE720480AF098FCA0E716AB4C
:1035B00003EB870353ED036A16AB3B4413F81C0C73
:1035C000C0F1280307EE103AB8EEC77AC6EE877A44
:1035D000174A4FF4866303FB0723FCEEE77AC3ED3B
:1035E0003A7A998F0C4A528807EB8705EC002244FF
:1035F00092B21144D987B3F840100A44A3F842208C
:10360000C3F8F4000137FFB2022F1BD8002671E780
:1036100048080108F408010808E6002070B90020F5
:103620002809010867666666741401080000000036
:1036300070D900200000C84238090108A809010813
:10364000540A010839480AF049FC394C94F8A81189
:1036500094F8A921B4F8AA3194F8AC0194F8AD51CA
:1036600094F8AE6102960195009032480AF0C2FBD0
:1036700094F8B71194F8B52194F8B63194F8B801DC
:1036800094F8B95194F8BA4102940195009001F56B
:10369000FA6129480AF0AEFB00253FE0244BD3ED48
:1036A0006C7A264B4FF4866404FB0534D4F8E8604A
:1036B00007EE106AB8EE477A87EE278A9FED207AE8
:1036C00028EE078AE78FB4F83C90B4F842A0B4F82B
:1036D00040B017EE900AFCF7DFFECDE90C01013592
:1036E000D4F8F4300A93D4F8F0300993CDF820B030
:1036F000CDF81CA0D4F8EC300693CDF814900497C4
:1037000018EE100AFCF7C8FECDE902010096DDE9CB
:103710000C2329460B480AF06DFBEDB2022DBDD9F2
:1037200016B0BDEC028BBDE8F08E00BF780A010830
:1037300008E60020840A0108AC0A010870D90020BC
:103740000000C842DC0A0108F0B58FB00D46634C9A
:103750004FF4866101FB0541098D00297DD10746A3
:10376000100AD2B202218DF80410A8218DF805109C
:1037700079218DF80610C3218DF80710002B40F039
:103780008F800F238DF808304FF4866303FB0543C9
:1037900093F82030D90009128DF80910DB008DF85C
:1037A0000A3000238DF80B308DF80C3009244C4B77
:1037B00019780EAB234403F8341C631C0EA90B4488
:1037C000422103F8341CA31C0EA90B44102103F85A
:1037D000341C424B4FF4866606FB053696F82010E3
:1037E000E31C01390DF1380C634403F8341C231D2C
:1037F0006344002103F8341C631D6344012103F872
:10380000341CA31D6344022103F8341CE31D6344EC
:1038100003F8340C04F10803634403F8342C092141
:1038200001AB181901F094F904F109030EAA13442D
:1038300003F8340C04F10A03C0F30720134403F81F
:10384000340C642304F10B0201A9384606F0B8F9E0
:1038500096F82030013386F82030204A4FF48663F2
:1038600003FB052393F82030042B17D913464FF49C
:10387000866202FB0532138D01339BB21385022B46
:103880000CD9164B4FF4866202FB053500232B85BD
:10389000012385F820302B8A01332B820FB0F0BD35
:1038A000012B01D0002482E70B238DF808300B494F
:1038B0004FF4866303FB051393F820404FF406731F
:1038C00003FB054303F5E27331F81330190A8DF851
:1038D00009108DF80A30072469E700BF70D900206D
:1038E00008E6002008B51D4B1B7883B11B4B002256
:1038F0001A701B4BDA79013A1A4981FB0231D3174E
:10390000C3EB2113012B09D0022B14D003B108BD46
:10391000012219461448FFF717FFF8E70023012298
:1039200019461148FFF710FF0023012211460F48E6
:10393000FFF70AFFEBE70023012219460A48FFF7C9
:1039400003FF0023012211460848FFF7FDFE002374
:10395000012202210648FFF7F7FED8E715190120DA
:1039600008E60020676666661C4900207C46002049
:10397000DC48002010B582B002238DF80430A82363
:103980008DF8053079238DF80630C3238DF8073084
:1039900003780BB304460146002301F8043B0422DC
:1039A0000DEB0200FFF73CF9B0B9237A0A2B15D0D2
:1039B000237A012B0DD0032B0BD0042B09D0052B20
:1039C00007D0062B05D0092B03D00C2B01D00F2BD1
:1039D00002D12046FFF776FA02B010BD61880739A0
:1039E000C9B204F10B0001F0B3F80028E0D1237B49
:1039F000412B08D0422BEFD163880F2BECD120460E
:103A0000FFF7D8F9E8E76388162BE5D12046FFF7E2
:103A100019F9E1E708B501F079FC01F05DFD01F06D
:103A20004FFE00F02BFC054B1B7803B908BD034B80
:103A300000221A70FFF750FCF8E700BF2C19012094
:103A400008B5FFF7E7FF08BDB0F5FA7F46D8B1F536
:103A5000FA7F45D8B2F5FA7F44D8F0B400EB4003C2
:103A60005E00B6B2741F214BDC8601EB4104650099
:103A7000ADB26C1F1C8702EB42077C00A4B2671F2B
:103A80005F87023E9E87023DDD87023CA3F84040EF
:103A900000F00F040A3483F8424010F00F0F02D1F7
:103AA0001A2083F8420001F00F030A330F4880F810
:103AB000433011F00F0F02D11A2180F8431002F0A9
:103AC0000F030A33094981F8443012F00F0F0BD16C
:103AD0001A2281F844200020F0BC70470120704772
:103AE00001207047012070470020F5E708E600201C
:103AF00008B5FFF7A9FFA0BB4D4B93F8283013F092
:103B0000010F31D14A4B93F8283013F0020F31D115
:103B1000474B93F8283013F0040F31D1642006F09E
:103B2000F2FF434B93F8283013F0010F2ED1404B96
:103B300093F8283013F0020F2FD13D4B93F8283023
:103B400013F0040F30D1642006F0DDFF384B9B7971
:103B5000082B30D0102B4CD0642006F0D4FF00206E
:103B600008BDFFF7B1FBC7E7314BD98E314802F0F2
:103B70002FFAC7E72E4B198F2F4802F029FAC7E713
:103B80002B4B598F2D4802F023FAC7E7284B93F8A7
:103B90004210284802F054FAC9E7254B93F8431025
:103BA000254802F04DFAC8E7214B93F8441023480A
:103BB00002F046FAC7E71E4B93F8283013F0010FC6
:103BC0000FD11B4B93F8283013F0020F0DD1184B77
:103BD00093F8283013F0040FBED0184802F017FAFB
:103BE000BAE7144802F013FAEBE7134802F00FFAB1
:103BF000EDE70F4B93F8293013F0010F0FD10C4B69
:103C000093F8293013F0020F0DD1094B93F82930A6
:103C100013F0040FA0D0094802F0F9F99CE7054819
:103C200002F0F5F9EBE7044802F0F1F9EDE700BF27
:103C300008E600201C4900207C460020DC480020CB
:103C4000F8B57E4B02221A72DB79FF2B00F0DB8085
:103C50007A4B1B78FF2B00F0DA80784A117801F05C
:103C6000070301335370062B01D8072902D8734B81
:103C700001225A70714A5378013BC3EB0313D900F8
:103C80005180138EFF2B05D0538EFF2B02D0938EC5
:103C9000FF2B06D1694B05221A8606225A86072277
:103CA0009A86664CA28E618E208EFFF7CDFE282369
:103CB00084F8453084F8463084F84730012384F88E
:103CC00020305F4BE3605F4B23615F4B63615F4B71
:103CD000A3615F4BE361C823A4F8CC310423A4F8AB
:103CE000CE313222A4F8D021A4F8D2316423A4F832
:103CF000D4310523A4F8D631564BC4F88431564B41
:103D0000C4F88831554BC4F88C310023C4F8943181
:103D1000534AC4F89021C4F89C31C4F89821C4F8DF
:103D2000A4314FF07E53C4F8A03165786B1E9AB26F
:103D30001301981A810101F58051A4F8DA11AEB28D
:103D400031018F1BB80100F6FF70A4F8DC019B1A4B
:103D5000DA0092B202F50053A4F8DE31891BCB00E1
:103D60009BB203F5FF511F31A4F8E011A4F8E22142
:103D7000591EA4F8E41102F50071A4F8E61103F24B
:103D8000FF11A4F8E81102F58061A4F8EA1103F22A
:103D9000FF31A4F8EC1102F5C861A4F8EE1103F2AA
:103DA0003F61A4F8F01102F50461A4F8F21103F6E2
:103DB0003F01A4F8F41102F52462A4F8F62103F6F9
:103DC0003F23A4F8F831052D25D01C4B41F2883251
:103DD0009A854FF4FA62DA851A78224BA3FB021314
:103DE000DB08C3EB0313D31A13F0FF0324D01349EA
:103DF0000B71531E1B4A82FB03021A44DB17C3EBF1
:103E0000E2034B71F8BD0D4B7822DA7120E70B4BC2
:103E100010221A7021E74FF4F852A4F8DA214FF477
:103E2000FD52A4F8DC2142F2E012A4F8DE2142F2B5
:103E3000F312A4F8E021C8E70F23D8E708E6002032
:103E4000900B01089C0B0108A80B0108B00B01089E
:103E5000B80B010800004842000048410000A041A2
:103E60000000204189888888F0B585B075480AF03F
:103E700035F8754C20460AF031F874480AF02EF8EF
:103E800020460AF02BF872480AF028F820460AF07B
:103E900025F8704CE169704809F0ACFFE1686F48A3
:103EA00009F0A8FF21696E4809F0A4FF61696D4817
:103EB00009F0A0FFA1696C4809F09CFF94F820303C
:103EC000002B00F0B780012B00F0B8805E4D284633
:103ED0000AF004F865480AF001F8284609F0FEFFE8
:103EE000634809F0FBFF00F0D3F9624809F0F6FFE0
:103EF000614809F0F3FF614809F0F0FF284609F036
:103F0000EDFF5F4809F0EAFF284609F0E7FF514C52
:103F100021785C4809F06EFF61785B4809F06AFF20
:103F200061885A4809F066FFE179594809F062FF53
:103F3000284609F0D3FF574809F0D0FF284609F07A
:103F4000CDFF554809F0CAFF218E94F84220E38E38
:103F5000207A0090514809F04DFF618E94F843207B
:103F6000238F207A00904E4809F044FFA18E94F8E8
:103F70004420638F207A00904A4809F03BFF28468E
:103F800009F0ACFF484809F0A9FF284609F0A6FF50
:103F9000B4F8CC11454809F02DFFB4F8CE114448CF
:103FA00009F028FFB4F8D011424809F023FFB4F813
:103FB000D211414809F01EFFB4F8D4113F4809F06E
:103FC00019FFB4F8D6113E4809F014FF284609F04D
:103FD00085FF3C4809F082FF284609F07FFF94F8EE
:103FE000A81194F8A921B4F8AA3194F8AC0194F876
:103FF000AD6194F8AE71029701960090324809F0D5
:10400000F9FE284609F06AFF304809F067FF2846A4
:1040100009F064FF94F8293094F82820A1792C48FD
:1040200009F0E8FE284609F059FF2A4809F056FF32
:1040300005B0F0BD284809F051FF47E7274809F0CF
:104040004DFF43E7C80B0108000C0108380C0108BC
:10405000700C010808E60020A80C0108D80C010823
:10406000080D0108380D0108680D0108080E010847
:10407000400E0108780E0108B00E0108E80E010894
:10408000200F0108580F01088C0F0108C40F010808
:10409000FC0F0108341001086C100108A41001087D
:1040A000D8100108101101084811010880110108F9
:1040B000B8110108F0110108281201086012010866
:1040C00098120108D0120108840A01080813010897
:1040D000A006010840130108980D0108D00D010841
:1040E0003A4A92F8AE310133DBB282F8AE31D2ED0A
:1040F0006C7AB7EE007A77EE877AC2ED6C7A344A42
:10410000A2FB03125209C2EB021291005B1A13F0D8
:10411000FF0F5AD12D4A002382F8AE3192F8AD310B
:104120000133DBB282F8AD31294AA2FB03125209F6
:10413000C2EB021291005B1A13F0FF0F45D1234A24
:10414000002382F8AD3192F8AC310133DBB282F852
:10415000AC31204AA2FB0312120902EB4202D10049
:104160005B1A13F0FF0F30D1184A002382F8AC31EC
:10417000B2F8AA3101339BB2A2F8AA31144AA2FBC9
:1041800003121209C2EB021251005B1A9BB2E3B98F
:104190000E4AA2F8AA3192F8A9310133DBB282F8B3
:1041A000A9310C4AA2FB0312D20802EB4202910091
:1041B0005B1A13F0FF0F08D1044B002283F8A921EA
:1041C00093F8A821013283F8A821704708E600205F
:1041D00089888888ABAAAAAA10B51F4B9B79082B9F
:1041E00002D0102B1DD010BD1B4B93F82A30002B92
:1041F000F9D0194B93F82830002BF4D0164C00233B
:1042000084F82A30A28E618E208EFFF771FC94F81C
:1042100024100131C9B284F82410104809F0EAFDD5
:10422000E1E70D4B072283F8292093F82B30002B70
:10423000D9D0094C002384F82B30A28E618E208EB9
:10424000FFF756FC94F824100131C9B284F8241009
:10425000034809F0CFFDC6E708E600207C130108FB
:1042600098130108044B012283F8202083F850247E
:1042700083F88028704700BF70D90020034B1B785B
:1042800013B1024B00221A70704700BF221901209F
:1042900010B5284809F022FE01F044FF264C2046C4
:1042A00001F076FF6278A4F5017494F804122348B3
:1042B00009F0A0FD0722002104F5807001F098FFAD
:1042C00038B91F4809F00AFE1E4809F007FE00240D
:1042D0000CE067211C48FDF709FCF5E71B4B234464
:1042E00093F800111A4809F085FD0134062CF5D920
:1042F000184809F0F3FD0721174800F029FCA0B188
:10430000164809F0EBFD114A92F80011144B197090
:1043100092F80111D97192F80211198692F80311DD
:10432000598692F804219A8610BD0E4809F0D6FDF0
:10433000E9E700BFB41301080C1F0120D0130108E6
:10434000F41301082414010800140108081D0120B9
:104350003414010874140108081E01205C140108BB
:1043600008E600204014010870B40C88844207D28B
:1043700031F81350854237D95D089BB200241EE006
:10438000001B4B881C1B90FBF4F307EE903A0024B3
:10439000631C02EB830393ED007A02EB840292ED3F
:1043A000000A37EE407AF8EE677A67EE877A30EEE9
:1043B000270A70BC70472C461D19C5F34F051E1BFC
:1043C000012E05DD31F815608642F4D92B46F3E75E
:1043D00031F81450401B631C31F813305B1B90FB09
:1043E000F3F307EE903AD3E75C1EA4B203F1004367
:1043F000013B31F81330C01AED1A90FBF5F307EECC
:10440000903AC5E710B4044638B3012801D0022819
:1044100054D05DF8044B704703EBC3020244564985
:1044200031F8122007EE902AF8EEE77A37EE277A75
:104430000133DBB2642BEFD9DFED506AC7EE267A89
:104440004F4B03EB8003C3ED007A013080B20828A4
:1044500005D823469FED4B7AECE70020F7E70020D4
:104460001BE003EB43014A000244474931F81220A4
:1044700007EE902AF8EEE77A37EE277A0133DBB2BF
:10448000642BEED9DFED3D6AC7EE267A3F4B03EB96
:104490008003C3ED007A013080B20528B9D82346E5
:1044A0009FED387AECE7364A02EB83020021116077
:1044B00001339BB2082BF6D9002023E00023F9E753
:1044C0002F4A02EB800292ED007A03EBC301014414
:1044D000294C34F8111007EE901AC3F164042C49EA
:1044E00001EB8401D1ED006AF8EEE77A67EEA67A77
:1044F00077EE277AC2ED007A0133DBB2642BDFD985
:10450000013080B2082801D80023F7E7002306E035
:104510001E4A02EB83020021116001339BB2052B7E
:10452000F6D9002422E0194A02EB840292ED007AC7
:1045300003EB430041002144134830F8111007EE0B
:10454000901AC3F16400124901EB8001D1ED006AB9
:10455000F8EEE77A67EEA67A77EE277AC2ED007A70
:104560000133DBB2642BDED90134A4B2052C3FF653
:1045700050AF0023F6E700BF44ED00200000CA4220
:1045800060F400200000000088E8002070E80020AF
:1045900044000020F0B4049C002800F08980064606
:1045A000002A00F08880002B00F08780002900F0AE
:1045B00086800746DFED447AB0EE677A00200CE093
:1045C0003D460835D7ED006A37EE267AD7ED016A09
:1045D00077EEA67A0130C0B22F468842F0D306EEBD
:1045E000901AF8EEE66A87EE265AC7EEA65A3546C6
:1045F000DFED356AB0EE666A002012E0D5ED007A94
:1046000077EEC57A27EEA77A36EE076A95ED017A3E
:1046100037EE657A67EE877A76EEA76A0130C0B228
:1046200008358842EAD3C6EE867AC3ED007A27EED3
:10463000855A35EEC55A82ED005A002C41D0002033
:1046400060602060002022E0D2ED007A93ED007AD5
:10465000D6ED006A27EE267A37EE877A77EE657A0E
:1046600067EEA77AD4ED006A76EEA77AC4ED007AF9
:10467000D6ED017A77EEC77A67EEA77A94ED017AE4
:1046800077EE277AC4ED017A0130C0B2083688424D
:10469000DAD32368A360D4ED016A023907EE901AD9
:1046A000F8EEE77A86EEA77A84ED037A012000E03F
:1046B0000020F0BC70470020FBE70020F9E7084627
:1046C000F7E70120F5E700BF0000000010B582B059
:1046D000002435E0E31C3B4A02EB8303D3ED007A70
:1046E0009FED397A67EE877A9FED387A67EE877AA1
:1046F000DFED376A87EEA67A04F11203354A02EB42
:10470000830383ED007A334B93F89030012B38D03C
:10471000304B04F1120203EB8202D2ED007A93EDEA
:10472000647A67EE877A93ED657A77EE877AFCEEA6
:10473000E77A294B17EE902A23F814200134E4B2CB
:10474000052C3DD8234B93F82030012BC2D0E31C1D
:104750001C4A02EB8303D3ED007A9FED1B7A67EED0
:10476000877A9FED1A7A67EE877ADFED1C6A87EE0B
:10477000A67A04F11203174A02EB830383ED007A51
:10478000C1E7174800F190030093034600F1480287
:1047900002213038FFF7FEFE0128B9D10D4BD3EDD1
:1047A000437A93ED317A04F1120203EB8203D3EDE5
:1047B000006A27EE267A77EE877AC3ED007AA7E7BC
:1047C00002B010BD60F40020333353400000803944
:1047D00046BA593B08E600208C0801200ABFD43CA9
:1047E000CCE6002010B582B0714BD3ED617A9FED1D
:1047F000715A67EE857AF3EE045A87EEA56A6E4A1F
:10480000D2ED007ADFED6D6A67EEA67A9FED6C7AE5
:1048100067EE877A66EE277AC3ED187AD2ED027AD0
:1048200067EEA67A67EE877A66EE277AC3ED1A7A84
:10483000D3ED627A67EE857A87EEA56AD2ED017ACA
:1048400067EEA67A67EE877A66EE277AC3ED197A65
:10485000D2ED037A67EEA67A67EE877A66EE277A5C
:10486000C3ED1B7AD3ED637A67EE857A87EEA56A8E
:10487000D2ED047A67EEA67A67EE877A66EE277A3B
:10488000C3ED1C7AD2ED057A67EEA66A26EE877A2A
:1048900026EE077A83ED1D7A93F89030012B00F015
:1048A0008480434BD3ED186A93ED667A66EE876A8F
:1048B000D3ED677A76EEA76A424AFCEEE66A16EE18
:1048C000901AA2F8201CD3ED196A66EEC76A77EE3B
:1048D000A66AFCEEE66A16EE901AA2F8221CD3ED48
:1048E0001A6A67EE266A77EEA66AFCEEE66A16EEAC
:1048F000901AA2F8241CD3ED1B6A66EEC76A77EE05
:10490000A66AFCEEE66A16EE901AA2F8261CD3ED13
:104910001C6A67EE266A77EEA66AFCEEE66A16EE79
:10492000901AA2F8281CD3ED1D6A27EE267A77EE9E
:10493000877AFCEEE77A17EE903A9BB2A2F82A3C0F
:10494000A2F8303C02B010BD0134E4B2052CA8D866
:104950001D4800F188030093034600F1480202213C
:104960003838FFF717FE0128EED1114BD3ED617AED
:10497000B7EE007AC7EE276AB2EE047AC6EE877AFF
:1049800093ED497A67EE877AC3ED497A93ED377AEA
:1049900004F1180203EB8203D3ED006A27EE267AB6
:1049A00077EE877AC3ED007ACEE70024CEE700BF2A
:1049B00008E600200000044270E800203333534032
:1049C000000080398CFC0020E4E6002030B583B084
:1049D00000242BE0354B93ED1E7AD3ED686A27EE69
:1049E000267AD3ED697A37EE277A314ABCEEC77A58
:1049F00017EE101AA2F8401C93ED1F7A26EE877A64
:104A000037EE877ABCEEC77A17EE101AA2F8421C6E
:104A100093ED207A66EE876A77EEA67AFCEEE77A67
:104A200017EE903AA2F8443C0134E4B2022C3BD891
:104A30002546204B03EB8403D3ED007A1E49FCEEA0
:104A4000E77AAA230A4601F52B7117EE900A80B285
:104A5000FFF78AFC154A04F11E0302EB830383ED82
:104A6000000A92F89230012BB4D102F1F40000F167
:104A700080030093034600F1480202214038FFF70B
:104A800089FD0128A6D1094BD3ED4F7A93ED3D7AEC
:104A90001E3503EB8505D5ED006A27EE267A77EE05
:104AA000877AC5ED007A95E703B030BD08E60020AF
:104AB0008CFC002060F40020ACFB0008224B5B78EB
:104AC000012B00D070472DE9F04188B00220FFF79C
:104AD00099FCFFF7FBFDFFF785FEFFF777FF1A4B09
:104AE0009B79012B2DD008B0BDE8F0815C1C164AE3
:104AF00003F1120102EB810103F1180002EB8000C7
:104B000005681E3302EB8303D3F800800868FBF7C7
:104B1000C3FC06460F464046FBF7BEFCCDE9060146
:104B200004942846FBF7B8FCCDE902010094324614
:104B30003B462146054809F05DF9E3B2052BD5D97E
:104B4000D1E70023FAE700BF08E600207814010847
:104B500070B4FF2426460AE0037883EA0402084B77
:104B60009C5C7440134493F80061294601304B1E4D
:104B7000DDB20029F0D144EA062070BC704700BFC6
:104B8000B0FF0008F0B5C1B0CB4B9A79DD7905EBE9
:104B900002251A7A5C7A04EB0224A4B2DB88B3F50E
:104BA000B06F22D0ADB24EF28002934200F081800D
:104BB000822B00F0BA80A5F540539BB2072B00F280
:104BC0003681BE4B5B78012B40F02D81082C00F222
:104BD0002A81B94B1A798DF800205B798DF8013064
:104BE00063008DF802300026EEE0092C01D041B0C0
:104BF000F0BDB14B1A798DF800205B798DF801304A
:104C00006100C9B28DF80210AC4B93F8422010122B
:104C10008DF803008DF8042093F8432010128DF8CE
:104C200005008DF8062093F8442010128DF8070037
:104C30008DF80820DA8E100A8DF809008DF80A2008
:104C40009A8F100A8DF80B008DF80C201A8F100A1D
:104C50008DF80D008DF80E20DA8F100A8DF80F00F8
:104C60008DF810205A8F100A8DF811008DF812203F
:104C7000B3F840301A0A8DF813208DF81430033140
:104C8000C9B26846FFF764FF9DF8023003330DF8A0
:104C900003009DF802300433C0F307200DF8030031
:104CA0009DF80220642305326946854804F088FF98
:104CB0009DE70A2C9BD1804B1A798DF800205B79F7
:104CC0008DF801306100C9B28DF802107B4AD368BB
:104CD0001C685868CDF80340CDF807001B89ADF873
:104CE0000B30136918685A68CDF80D00CDF8112003
:104CF0001B89ADF815300331C9B26846FFF728FFAC
:104D00009DF8023003330DF803009DF802300433A0
:104D1000C0F307200DF803009DF80220642305323C
:104D20006946674804F04CFF61E7042C7FF45FAFED
:104D3000614B1A798DF800205B798DF801306100A4
:104D4000C9B28DF802105D4BB3F8CC21100A8DF872
:104D500003008DF80420B3F8CE21100A8DF8050069
:104D60008DF80620B3F8D021100A8DF807008DF8D1
:104D70000820B3F8D2311A0A8DF809208DF80A30CC
:104D80000331C9B26846FFF7E3FE9DF802300333F2
:104D90000DF803009DF802300433C0F307200DF82E
:104DA00003009DF80220642305326946444804F05C
:104DB00007FF1CE74FF40061424802F08FFA023708
:104DC0000DF817000136F6B2B3B2A3420FD2374640
:104DD0007300033300220DF80320A5F54053DE4293
:104DE000E8D14FF40071374802F078FAE7E79DF810
:104DF00002100331C9B26846FFF7AAFE9DF80230DF
:104E000003330DF803009DF802300433C0F307208C
:104E10000DF803009DF802206423053269462848F6
:104E200004F0CEFEE3E6284809F058F8DFE6234B0D
:104E30005B78012B4CD0214BB3F8DA31AB4200F256
:104E400088801E4BB3F8DC31AB42C0F082807D2CF1
:104E500000D97D24184B1A798DF800205B798DF8E4
:104E600001306600F6B28DF80260B5F580556ED45B
:104E7000ED106200154901EB05110DF1030008F07A
:104E8000A1FAF11CC9B26846FFF762FE9DF8023034
:104E900003330DF803009DF802300433C0F30720FC
:104EA0000DF803009DF8022064230532694604488A
:104EB00004F086FE9BE600BF1015012008E60020E6
:104EC0009C480020001802409814010870B9002086
:104ED000B5F5C06FAFD3B5F5C86FACD25A4B1A79E0
:104EE0008DF800205B798DF8013063008DF8023079
:104EF00000239AB2A2420ED2E918544A32F8111095
:104F00005A000332080A0DF802009A1C0DF812101C
:104F10000133DBB2EDE79DF802100331C9B26846F8
:104F2000FFF716FE9DF8023003330DF803009DF8DD
:104F300002300433C0F307200DF803009DF802206F
:104F4000642305326946424804F03AFE4FE60735CD
:104F50008EE7404BB3F8E231AB4204D83D4BB3F897
:104F6000E431AB4233D23B4BB3F8E631AB4204D829
:104F7000384BB3F8E831AB4229D2364BB3F8EA31BB
:104F8000AB4204D8334BB3F8EC31AB421FD2314BB8
:104F9000B3F8EE31AB4204D82E4BB3F8F031AB424C
:104FA00015D22C4BB3F8F231AB4204D8294BB3F8ED
:104FB000F431AB420BD2274BB3F8F631AB423FF69C
:104FC00016AE244BB3F8F831AB42FFF410AE7D2C93
:104FD00000D97D241C4B1A798DF800205B798DF85F
:104FE000013063008DF8023000230DE0E918174A04
:104FF00032F81120590003310DF80120991C120AD2
:105000000DF811200133DBB29AB2A242EED39DF823
:1050100002100331C9B26846FFF79AFD9DF80230CD
:1050200003330DF803009DF802300433C0F307206A
:105030000DF803009DF802206423053269460448F8
:1050400004F0BEFDD3E500BF101501208CFC00204C
:105050009C48002008E60020F0B585B0524B9979B5
:10506000DA7902EB012295B21A7A5C7A04EB022417
:10507000A4B29B7AB3EB440F40F08F80B5F5824F1A
:1050800027D044F230039D4240F08C80012C40F048
:105090008980454AD17A137B03EB0123012B70D021
:1050A000002B74D0414B186801909B88ADF80830F4
:1050B000062101A8FFF74CFDC0F307238DF80A3045
:1050C0008DF80B006423082201A9394804F078FD0B
:1050D00068E0384B9B79012BD3D1052C62D1324B40
:1050E0001F7B354E3770987BF071DA7B197C01EBB2
:1050F000022189B2318693F811C09A7C02EB0C220E
:1051000092B2728693F813C01B7D03EB0C239BB203
:10511000B3864FF0070C86F828C0284E37707070A1
:10512000B170F270337105213046FFF711FD7071D7
:10513000C0F30720B071002001F0F8F8D8B90722B9
:105140000021304601F08CF8184B186801909B88BC
:10515000ADF80830062101A8FFF7FAFC8DF80A0027
:10516000C0F307208DF80B006423082201A9104822
:1051700004F026FD85E740F283111148FCF7B6FCE8
:105180007FE7012208210F4802F0AFF88AE70022EA
:1051900008210C4802F0A9F884E74FF4E4710848AC
:1051A000FCF7A4FC05B0F0BD10150120141501207A
:1051B0009C480020FC1C012008E60020081D01205E
:1051C000A8140108000C024008B5144B1B783BB131
:1051D000124B00221A705B79032B02D0102B0ED0D9
:1051E00008BD08210E48FFF7B3FC0028F8D14FF4A2
:1051F00080510C4802F07FF8FFF7C4FCF0E7074845
:1052000081780430FFF7A4FC0028E9D14FF48051E5
:10521000044802F070F8FFF71FFFE1E710150120C6
:10522000141501200018024003681A6812F0100FCC
:1052300000D1704730B583B00D460446002201927C
:105240001A6801925B680193019B04F07DFD636B1A
:105250001B685B68C3F580636B8001232B70104B68
:105260009C420DD00F4B9C420FD00F4B9C4211D053
:105270004FF48062291D204604F012FD03B030BDBA
:105280000A4B186805F0E2FCF2E7094B186805F0D4
:10529000DDFCEDE7074B186805F0D8FCE8E700BF38
:1052A0001C4900207C460020DC480020F8430020F8
:1052B00010440020E443002008B50378022B02D0FC
:1052C000792B0ED008BD4278A82AF9D100224FF4DC
:1052D00080410B4802F009F814210A48FDF7BEFA94
:1052E000F0E74378C32BEDD101224FF4804104480D
:1052F00001F0FBFF15210448FDF7B0FAE2E700BF1B
:1053000000180240C0140108D4140108494B996CDC
:10531000494A1180D96C494A1180196D484A118057
:10532000596D484A1180996D474A1180D96D474A95
:105330001180196E464A1180596E464A1180996E45
:10534000454A1180D96E454A1180196F444A11802F
:10535000596F444A1180996F434A1180D96F434A6B
:105360001180D3F88010424A1180D3F88410414A4A
:105370001180D3F88810404A1180D3F88C103F4A2E
:105380001180D3F890103E4A1180D3F894103D4A12
:105390001180D3F898103C4A1180D3F89C103B4AF6
:1053A0001180D3F8A0103A4A1180D3F8A410394ADA
:1053B0001180D3F8A810384A1180D3F8AC10374ABE
:1053C0001180D3F8B010364A1180D3F8B410354AA2
:1053D0001180D3F8B810344A1180D3F8BC10334A86
:1053E0001180D3F8C010324A1180D3F8C410314A6A
:1053F0001180D3F8C810304A1180D3F8CC102F4A4E
:105400001180D3F8D0102E4A1180D3F8D4102D4A31
:105410001180D3F8D8102C4A1180D3F8DC102B4A15
:105420001180D3F8E0102A4A1180D3F8E420294BE8
:105430001A80704770D90020661B0120401C012093
:10544000241A0120D21B0120E61C0120D21A0120BF
:10545000721B012090190120B21901207A1A012033
:10546000821B0120B01C0120AC1C01203A1A012033
:10547000101A0120521B0120F01C0120641A012087
:10548000FA1B0120B61A01200E1C0120E019012090
:105490002A1B0120261B0120741C0120AC1B0120AB
:1054A000DA1C01209C1A0120F81B0120C21A0120DD
:1054B000601C0120CC190120301C01209C19012006
:1054C00098190120E41A0120C01A0120161C01209D
:1054D000CA1901200A1B0120504BD3F87814504AF6
:1054E0001180D3F87C144F4A1180D3F880144E4AAF
:1054F0001180D3F884144D4A1180D3F888144C4A93
:105500001180D3F88C144B4A1180D3F890144A4A76
:105510001180D3F89414494A1180D3F89814484A5A
:105520001180D3F89C14474A1180D3F8A014464A3E
:105530001180D3F8A414454A1180D3F8A814444A22
:105540001180D3F8AC14434A1180D3F8B014424A06
:105550001180D3F8B414414A1180D3F8B814404AEA
:105560001180D3F8BC143F4A1180D3F8C0143E4ACE
:105570001180D3F8C4143D4A1180D3F8C8143C4AB2
:105580001180D3F8CC143B4A1180D3F8D0143A4A96
:105590001180D3F8D414394A1180D3F8D814384A7A
:1055A0001180D3F8DC14374A1180D3F8E014364A5E
:1055B0001180D3F8E414354A1180D3F8E814344A42
:1055C0001180D3F8EC14334A1180D3F8F014324A26
:1055D0001180D3F8F414314A1180D3F8F814304A0A
:1055E0001180D3F8FC142F4A1180D3F800152E4AED
:1055F0001180D3F804152D4A1180D3F808152C4AD0
:105600001180D3F80C152B4A1180D3F810152A4AB3
:105610001180D3F81425294B1A80704770D90020C7
:105620000A1A0120681C01204E1B0120D4190120F8
:105630001E1C01208419012080190120C61A012096
:10564000361B01206C1901201C1B0120441A01206B
:105650001C1C0120FC1B01203E190120B019012057
:10566000501901203C1C0120841B0120E01C01205A
:10567000EC1A0120881901207C1C0120741A0120D9
:105680005E1A0120AE1A0120381B0120CC1A01201D
:10569000EC19012042190120AA1A0120221A012026
:1056A0007C1A0120FE1A0120761B0120A61C012075
:1056B000D8190120D21C0120F2190120A21C0120BE
:1056C000504BD3F8A818504A1180D3F8AC184F4A61
:1056D0001180D3F8B0184E4A1180D3F8B4184D4A4F
:1056E0001180D3F8B8184C4A1180D3F8BC184B4A33
:1056F0001180D3F8C0184A4A1180D3F8C418494A17
:105700001180D3F8C818484A1180D3F8CC18474AFA
:105710001180D3F8D018464A1180D3F8D418454ADE
:105720001180D3F8D818444A1180D3F8DC18434AC2
:105730001180D3F8E018424A1180D3F8E418414AA6
:105740001180D3F8E818404A1180D3F8EC183F4A8A
:105750001180D3F8F0183E4A1180D3F8F4183D4A6E
:105760001180D3F8F8183C4A1180D3F8FC183B4A52
:105770001180D3F800193A4A1180D3F80419394A34
:105780001180D3F80819384A1180D3F80C19374A18
:105790001180D3F81019364A1180D3F81419354AFC
:1057A0001180D3F81819344A1180D3F81C19334AE0
:1057B0001180D3F82019324A1180D3F82419314AC4
:1057C0001180D3F82819304A1180D3F82C192F4AA8
:1057D0001180D3F830192E4A1180D3F834192D4A8C
:1057E0001180D3F838192C4A1180D3F83C192B4A70
:1057F0001180D3F840192A4A1180D3F84429294B43
:105800001A80704770D900206C1B0120CE1A01202D
:10581000861B01208A190120941B0120A61A012051
:10582000781C0120AE190120FA190120781A0120F4
:105830007A190120061C0120CA1C0120761A0120B9
:10584000081A0120921C0120461C0120DE190120AB
:10585000FE1B0120901A0120221C01200C1B01209C
:10586000C41901204A1B0120B41C0120521C012034
:10587000081B0120121A01208A1B0120481B01204D
:10588000A6190120161B0120A01A01207019012061
:10589000EA1C0120801A0120981C0120581B0120BD
:1058A0002C1C0120581A012038B51B4B5B88642B37
:1058B00011D9194B1B79013B042B28D8DFE803F0E1
:1058C000030C15271E00144D0024AC71214613480B
:1058D00008F090FA2C7138BD0F4C0121A1711048CD
:1058E00008F088FA00232371F5E70B4C2421A171FD
:1058F0000C4808F07FFA00232371ECE7064C2221C4
:10590000A171094808F076FA00232371E3E7024BFE
:1059100000221A71DFE700BFFC1C0120EC14010813
:10592000141501083C1501086415010838B51F4B12
:105930005B88642B11D91D4B1B79013B042B31D89B
:10594000DFE803F0030C151E2700184D0024AC718E
:105950002146174808F04EFA2C7138BD134C082127
:10596000A171144808F046FA00232371F5E70F4CA3
:105970001021A171104808F03DFA00232371ECE7D3
:105980000A4C1121A1710D4808F034FA002323714B
:10599000E3E7064C0421A171094808F02BFA002323
:1059A0002371DAE7014B00221A71D6E7F41C0120BB
:1059B0008C150108B4150108DC150108041601084E
:1059C0002C160108154B1B88C82B00D8704710B542
:1059D000134808F083FA01224FF48051114801F076
:1059E00084FC0E4B1B88B3F5FA7F00D810BD0E481F
:1059F00008F074FA0B4C01224FF40051204601F0DC
:105A000074FC01224FF48041204601F06EFC01221B
:105A10004FF40041204601F068FCE7E7FC1C012040
:105A2000541601080018024070160108154B1B8817
:105A3000C82B00D8704710B5134808F04FFA012260
:105A40004FF48051114801F050FC0E4B1B88B3F508
:105A5000FA7F00D810BD0E4808F040FA0B4C012226
:105A60004FF40051204601F040FC01224FF48041E8
:105A7000204601F03AFC01224FF40041204601F09B
:105A800034FCE7E7F41C01208816010800180240E6
:105A9000A416010810B52D48FFF706FF40212C4839
:105AA00001F01CFC002837D04021294801F016FCE9
:105AB000002839D0254A538801339BB2538012887D
:105AC000022A31D9022B2FD9A2F1C9039BB2B3F517
:105AD000957F2AD9A2F2F5139BB2B3F5F97F2ED99F
